:100000000C9463000C948B000C948B000C948B006C
:100010000C948B000C948B000C948B000C948B0034
:100020000C948B000C948B000C948B000C948B0024
:100030000C948B000C948B000C948B000C948B0014
:100040000C94A1050C948B000C946F050C9449053D
:100050000C948B000C948B000C948B000C948B00F4
:100060000C948B000C948B000000000023002600F1
:10007000290000000000240027002A0000000000E2
:10008000250028002B0004040404040404040202D4
:100090000202020203030303030301020408102007
:1000A0004080010204081020010204081020000012
:1000B0000008000201000003040700000000000027
:1000C00000003006080A11241FBECFEFD8E0DEBFC3
:1000D000CDBF23E0A4E1B2E001C01D92A138B20778
:1000E000E1F712E0A0E0B1E0E4EFF6E102C0059034
:1000F0000D92A431B107D9F710E0C2E6D0E004C0F8
:100100002197FE010E94670BC136D107C9F70E94F3
:10011000A7070C946D0B0C9400009B01AC01E091BF
:100120003302F091340282E08083211581EE38079A
:1001300041055105E9F160E079E08DE390E00E942E
:100140000F0B2150310941095109569547953795B3
:100150002795E0912F02F09130021082E091310258
:10016000F0913202208310923B02E0913702F0912D
:10017000380286E08083E0913502F091360280817A
:1001800080618083E0913502F09136028081886041
:100190008083E0913502F09136028081806880830F
:1001A000E0913502F091360280818F7D8083089541
:1001B000E0913302F0913402108220E1CACFFC01B9
:1001C00083A194A188509340B1F088E093E094A378
:1001D00083A38091080390910903892B69F4F0931C
:1001E0000903E093080310A2178E12A211A2F09344
:1001F0000B03E0930A030895A0910A03B0910B0347
:10020000B0A3A78F9296FC93EE939197EECFAF9207
:10021000BF92CF92DF92EF92FF920F931F93CF93F3
:10022000DF936C017B018B01040F151FEB015E0155
:10023000AE18BF08C017D10759F06991D601ED91EA
:10024000FC910190F081E02DC6010995892B79F789
:10025000C501DF91CF911F910F91FF90EF90DF903B
:10026000CF90BF90AF900895FC01538D448D252F02
:1002700030E0842F90E0821B930B541710F0CF9640
:10028000089501970895FC01918D828D981761F072
:10029000A28DAE0FBF2FB11D5D968C91928D9F5F89
:1002A0009F73928F90E008958FEF9FEF0895FC0168
:1002B000918D828D981731F0828DE80FF11D858D1B
:1002C00090E008958FEF9FEF0895FC01918D228DAE
:1002D000892F90E0805C9F4F821B91098F73992733
:1002E000089583E292E00E94650121E0892B09F4E0
:1002F00020E0822F089580E090E0892B29F00E9471
:10030000710181110C9400000895FC01A48DA80FC7
:10031000B92FB11DA35ABF4F2C91848D90E0019647
:100320008F739927848FA689B7892C93A089B18967
:100330008C91837080648C93938D848D981306C008
:100340000288F389E02D80818F7D80830895EF926C
:10035000FF920F931F93CF93DF93EC0181E0888F7F
:100360009B8D8C8D98131AC0E889F989808185FF4F
:1003700015C09FB7F894EE89FF896083E889F989F1
:1003800080818370806480839FBF81E090E0DF91F3
:10039000CF911F910F91FF90EF900895F62E0B8D46
:1003A00010E00F5F1F4F0F731127E02E8C8D8E1101
:1003B0000CC00FB607FCFACFE889F989808185FF68
:1003C000F5CFCE010E948501F1CFEB8DEC0FFD2F13
:1003D000F11DE35AFF4FF0829FB7F8940B8FEA8923
:1003E000FB8980818062CFCFCF93DF93EC01888D32
:1003F0008823B9F0AA89BB89E889F9898C9185FDA0
:1004000003C0808186FD0DC00FB607FCF7CF8C912D
:1004100085FFF2CF808185FFEDCFCE010E9485015F
:10042000E9CFDF91CF91089590E0FC01E255FF4FB5
:100430002491FC01E656FF4F3491FC01EA57FF4F2F
:10044000E491EE23C9F0222339F0233001F1A8F41E
:10045000213019F1223029F1F0E0EE0FFF1FE458AE
:10046000FF4FA591B4918FB7F894EC91611126C01C
:1004700030953E233C938FBF08952730A9F0283054
:10048000C9F0243049F7809180008F7D03C08091AE
:1004900080008F7780938000DFCF84B58F7784BD15
:1004A000DBCF84B58F7DFBCF8091B0008F778093B9
:1004B000B000D2CF8091B0008F7DF9CF3E2BDACF44
:1004C000CF93DF9360E08CE00E94140260E088E04C
:1004D0000E941402C7E0D0E060E084E00E941402B1
:1004E0008091060390E00C2E02C0959587950A94A2
:1004F000E2F761E080FF60E088E00E94140261E0C2
:1005000084E00E941402219738F761E08CE0DF91CB
:10051000CF910C941402CF93DF9390E0FC01E65648
:10052000FF4F24918A579F4FFC0184918823D1F07B
:1005300090E0880F991FFC01EE58FF4FA591B491F0
:10054000FC01E458FF4FC591D49161110EC09FB7D3
:10055000F8948C91E22FE0958E238C932881E223EE
:10056000E8839FBFDF91CF9108958FB7F894EC9106
:10057000E22BEC938FBFF6CF3FB7F89480911B022C
:1005800090911C02A0911D02B0911E0226B5A89B5D
:1005900005C02F3F19F00196A11DB11D3FBFBA2F15
:1005A000A92F982F8827BC01CD01620F711D811DD5
:1005B000911D42E0660F771F881F991F4A95D1F75A
:1005C00008958F929F92AF92BF92CF92DF92EF9257
:1005D000FF924B015C010E94BC026B017C010E94F6
:1005E000BC026C197D098E099F09683E7340810524
:1005F0009105A8F321E0821A9108A108B10888EEBC
:10060000C80E83E0D81EE11CF11C81149104A104E2
:10061000B10429F7FF90EF90DF90CF90BF90AF909B
:100620009F908F9008952FB7F89460911702709162
:1006300018028091190290911A022FBF0895CF934A
:10064000DF93FB0114A213A2A78DB0A1C1A1D2A177
:100650001097A9F4209759F4DC0111961C921E9270
:1006600013961C921E921297DF91CF91089518A2B3
:100670001F8EDC01CD93DC9312A211A2F5CF20973F
:1006800051F492961C921E929197EC01BB83AA831F
:1006900010A2178EE9CF9296DC93CE939197C1A1C9
:1006A000D2A1B8A3AF8F10A2178EE6CFEF92FF9220
:1006B0001F93CF93DF93EC01888198819E7F98836D
:1006C00098819D7F9883182F117080FF13C0ED8D46
:1006D000FE8D309779F0ABA1BCA11496ED90FC9003
:1006E00015971596DC93CE9314970995EBA1FCA171
:1006F000F582E482812FDF91CF911F91FF90EF90DF
:1007000008950F931F93CF93DF93FC01A3A1B4A18E
:100710001097B1F1EC01158A168A178A108E038C96
:10072000F48DE02D309789F1888181FD2EC01496DB
:100730000D911C9115971596DC93CE931497888193
:10074000826088830995988180FB90F998838881DD
:100750008D7F8883EBA1FCA1158304830E94130382
:1007600009811A812B813C810D831E832F83388759
:10077000601B710B820B930B69877A878B879C8731
:10078000DF91CF911F910F910895888181608883B7
:10079000E5CFCF93DF93EC010E9456038BA19CA180
:1007A000009729F0BE01DF91CF910C941F03DF91D8
:1007B000CF910895FC0101900020E9F73197AF0136
:1007C000481B590BBC0183E292E00C9407018F9205
:1007D0009F92AF92BF920F931F93CF93DF93CDB7AA
:1007E000DEB7A1970FB6F894DEBF0FBECDBF19A23A
:1007F000423008F44AE08E010F5D1F4F842E912C89
:10080000B12CA12CA50194010E940F0BE62FB90178
:10081000CA01EA30F4F4E05DD801EE938D01232B98
:10082000242B252B79F790E080E0109719F0CD016B
:100830000E94DA03A1960FB6F894DEBF0FBECDBFBB
:10084000DF91CF911F910F91BF90AF909F908F90AC
:100850000895E95CE1CFCF93DF934AE00E94E7037C
:10086000EC0182E191E00E94DA038C0F9D1FDF9181
:10087000CF910895CF93DF930E94DA03EC0182E1D8
:1008800091E00E94DA038C0F9D1FDF91CF910895B4
:100890000C94DA0385E191E00E9448040E9413035E
:1008A0000E942B0480916D0390916E03A0916F03C1
:1008B000B09170030297A105B10560F48EE093E05A
:1008C0000E94DF008EE093E00E9481038AE191E0C4
:1008D0000E943A048091650390916603A09167039A
:1008E000B0916803892B8A2B8B2BA1F58EE093E0C6
:1008F0000E9456036EE073E088E093E00E941F03BD
:1009000084EF91E0A0E0B0E080933403909335034E
:10091000A0933603B093370380913403909135034D
:10092000A0913603B0913703809338039093390335
:10093000A0933A03B0933B030E94130360933C03DC
:1009400070933D0380933E0390933F0380E491E0D6
:100950000C943A04089584E891E00E9448040E94AF
:1009600013030E942B0489E891E00C943A04CF927F
:10097000DF92EF92FF920F931F938CE891E00E9419
:1009800048040E9413030E942B0461E082E00E944D
:100990008B0260E083E00E948B0260E875E280E0F9
:1009A00090E00E948D0060E082E00E9414028FE0DF
:1009B00090E00197F1F761E082E00E94140283E287
:1009C00090E00197F1F760E082E00E941402EDE907
:1009D000F0E06491E9E8F0E0E491F0E0EE0FFF1F51
:1009E000E859FF4F8591949100E412E42FE030E044
:1009F000462F0E94EB05611571058105910529F0CF
:100A00006F5F7F4F8F4F9F4F9F700E94160A26E99E
:100A100033E44BE05DE30E94510A20E030E040E027
:100A20005FE30E94510A0E94310B7093150260939C
:100A3000140281E991E00E944804C0901402D09011
:100A400015020D2C000CEE08FF084AE0C701B601A4
:100A5000F7FE0DC06DE283E292E00E94A7016627D7
:100A60007727CB016C197D098E099F094AE00E9406
:100A7000E7038DE991E00E943A0462E370E080E0D0
:100A800090E01F910F91FF90EF90DF90CF900C942A
:100A9000E1021F920F920FB60F9211242F933F93F2
:100AA0004F935F936F937F938F939F93AF93BF9376
:100AB000EF93FF9383E292E00E948501FF91EF9113
:100AC000BF91AF919F918F917F916F915F914F9166
:100AD0003F912F910F900FBE0F901F9018951F926E
:100AE0000F920FB60F9211242F938F939F93EF9332
:100AF000FF93E0913302F09134028081E09139025A
:100B0000F0913A0282FD1BC0908180913C028F5F80
:100B10008F7320913D02821741F0E0913C02F0E09A
:100B2000ED5DFD4F958F80933C02FF91EF919F917A
:100B30008F912F910F900FBE0F901F90189580816D
:100B4000F4CF1F920F920FB60F9211242F933F9361
:100B50008F939F93AF93BF93809117029091180248
:100B6000A0911902B0911A023091160223E0230FCE
:100B70002D3758F50196A11DB11D209316028093C3
:100B8000170290931802A0931902B0931A02809151
:100B90001B0290911C02A0911D02B0911E020196B1
:100BA000A11DB11D80931B0290931C02A0931D02F6
:100BB000B0931E02BF91AF919F918F913F912F9162
:100BC0000F900FBE0F901F90189526E8230F0296E6
:100BD000A11DB11DD2CFCF92DF92EF92FF920F9362
:100BE0001F93E82FF92F05C0015011092109310980
:100BF00061F1908196239417B9F305C00150110952
:100C00002109310911F1908196239413F7CFC12C5A
:100C1000D12CE12CF12C0AC08FEFC81AD80AE80AAF
:100C2000F80A0C151D052E053F0579F080818623F5
:100C3000841791F36C2D7D2D8E2D9F2D1F910F917B
:100C4000FF90EF90DF90CF90089560E070E080E03B
:100C500090E01F910F91FF90EF90DF90CF9008955B
:100C6000CF92DF92EF92FF92CF93DF93E3E2F2E035
:100C70001382128288EE93E0A0E0B0E08483958333
:100C8000A683B78384E091E09183808385EC90E034
:100C90009587848784EC90E09787868780EC90E046
:100CA000918B808B81EC90E0938B828B82EC90E037
:100CB000958B848B86EC90E0978B868B118E128EB1
:100CC000138E148EE0ECF2E01682178210861186E5
:100CD000128613861486158616861786108A118A40
:100CE000128A138A148A158A10920703EFE7F3E039
:100CF000C3E0C083C18361E08CE00E948B0261E0AD
:100D000087E00E948B0261E088E00E948B0261E034
:100D100084E00E948B02109206030E94600260E051
:100D200087E00E9414020E94600284B5836884BD3B
:100D300017BC61E086E00E948B02EDE7F3E084E0FF
:100D40008083C18361E08CE00E948B0261E087E0D8
:100D50000E948B0261E088E00E948B0261E084E0E7
:100D60000E948B02109206030E94600260E087E0FE
:100D70000E9414020E94600284B5836284BD18BC84
:100D800061E085E00E948B02C8E5D3E088818E7F18
:100D9000888388818D7F888319861A861B861C86A6
:100DA0001D821E821F82188619821A821B821C8253
:100DB00018A21F8E1AA219A21CA21BA21D8A1E8A8B
:100DC0001F8A188E8AE494E09A8F898F1C8E1B8E5E
:100DD0001E8E1D8E80ED97E0A0E0B0E089839A839F
:100DE000AB83BC8389819A81AB81BC818D839E83D7
:100DF000AF83B8870E94130369877A878B879C87A4
:100E00008AE090E0A0E0B0E08D879E87AF87B88B46
:100E1000898B9A8BAB8BBC8BC3E3D3E088818E7FAD
:100E2000888388818D7F888319861A861B861C8615
:100E30001D821E821F82188619821A821B821C82C2
:100E400018A21F8E1AA219A21CA21BA21D8A1E8AFA
:100E50001F8A188E87EB94E09A8F898F1C8E1B8EC9
:100E60001E8E1D8E88EB9BE0A0E0B0E089839A8304
:100E7000AB83BC8389819A81AB81BC818D839E8346
:100E8000AF83B8870E94130369877A878B879C8713
:100E9000CC24CA94DC2C7601CD86DE86EF86F88AD7
:100EA000C98ADA8AEB8AFC8ACEE0D3E088818E7F19
:100EB000888388818D7F888319861A861B861C8685
:100EC0001D821E821F82188619821A821B821C8232
:100ED00018A21F8E1AA219A21CA21BA21D8A1E8A6A
:100EE0001F8A188E8BEA94E09A8F898F1C8E1B8E36
:100EF0001E8E1D8E88E893E1A0E0B0E089839A837E
:100F0000AB83BC8389819A81AB81BC818D839E83B5
:100F1000AF83B8870E94130369877A878B879C8782
:100F2000CD86DE86EF86F88AC98ADA8AEB8AFC8A61
:100F3000E8E0F3E01182108213821282158214829B
:100F4000DF91CF91FF90EF90DF90CF90089578944C
:100F500084B5826084BD84B5816084BD85B58260BE
:100F600085BD85B5816085BD80916E00816080936F
:100F70006E001092810080918100826080938100D8
:100F800080918100816080938100809180008160E8
:100F9000809380008091B10084608093B100809143
:100FA000B00081608093B00080917A00846080936B
:100FB0007A0080917A00826080937A0080917A0032
:100FC000816080937A0080917A00806880937A00B3
:100FD0001092C100109202031092030310920403B6
:100FE000109205031092C2021092C3021092C40222
:100FF0001092C5020E9413036B017C014B015C013E
:1010000028EB820E2BE0921EA11CB11C0E94130340
:101010006C157D058E059F0528F086169706A80697
:10102000B906A0F768EE73E080E090E00E94E1026C
:1010300060E875E280E090E00E948D000E9413035A
:101040006093C2027093C3028093C4029093C5025E
:1010500081EA91E00E9448040E9413036B017C0125
:101060004B015C013AE0830E911CA11CB11C0E9453
:1010700013036C157D058E059F0528F086169706CF
:10108000A806B906A0F781E08093D60260E072EC72
:1010900081E090E00E948D0082EB91E00E943A0492
:1010A000109209031092080310920B0310920A0386
:1010B00010920D0310920C0381EC91E00E943A040F
:1010C00088E593E00E94DF0087ED91E00E943A04FA
:1010D00083E393E00E94DF0080EE91E00E943A04F7
:1010E00068E873E180E090E00E94E10288E593E027
:1010F0000E94810389EE91E00E943A0483E393E029
:101100000E94810384EF91E00E943A04C0E0D0E0A5
:1011100084EFC82EDD24D394E12CF12C0E9413031C
:10112000672B682B692B09F4DBC00E941303009125
:101130001F0210912002209121023091220260179B
:1011400071078207930708F4F7C000911F021091FE
:10115000200220912102309122024B015C01801A71
:10116000910AA20AB30A950184010A3F11052105DB
:10117000310508F4BDC060931F0270932002809374
:10118000210290932202C092CE02D092CF02E0922E
:10119000D002F092D1021092D2021092D302109299
:1011A000D4021092D5028091C6029091C702A091FC
:1011B000C802B091C9028093CA029093CB02A09357
:1011C000CC02B093CD020E9413036093C6027093C9
:1011D000C7028093C8029093C9020E9413036093D0
:1011E000C2027093C3028093C4029093C5020E940E
:1011F00013034B015C018FEF91E00E9448044AE029
:1012000061E070E080E090E00E94E70386E092E019
:101210000E9448044AE0C501B4010E94E70388E047
:1012200092E00E9448048091C6029091C702A0916A
:10123000C802B091C902A5019401281B390B4A0BC1
:101240005B0BCA01B9014AE00E94E70388E092E023
:101250000E9448046091C6027091C7028091C80242
:101260009091C9020091CA021091CB022091CC0248
:101270003091CD02601B710B820B930B4AE00E94F0
:10128000E7038AE092E00E9448040E9413034AE0C8
:101290000E94E7038CE092E00E943A040E9413034C
:1012A0002B013C015C014B0135E0830E911CA11C1C
:1012B000B11C0E941303641575058605970528F077
:1012C00086169706A806B906A0F70E941303609336
:1012D000C6027093C7028093C8029093C90208C0E7
:1012E0000E941303623071058105910508F01DCF3E
:1012F000809108039091090390930D0380930C0350
:10130000E0910C03F0910D03309709F476C001A130
:1013100012A1808180FF0BC085859685A785B08945
:10132000892B8A2B8B2B89F4CF010E9456031093B3
:101330000D0300930C03E4CF60931F02709320020F
:10134000809321029093220200CF0E941303E09128
:101350000C03F0910D03218132814381548141843A
:1013600052846384748485809680A780B084DC0175
:10137000CB0184199509A609B70988159905AA050D
:10138000BB05A8F285859685A785B089181619062C
:101390001A061B065CF485859685A785B08901979A
:1013A000A109B10985879687A787B08B858996891A
:1013B000A789B08D0196A11DB11D858B968BA78B3A
:1013C000B08F85819681A781B08581849284A38422
:1013D000B484880D991DAA1DBB1D81879287A387A0
:1013E000B4872583368347835087018CF28DE02DA7
:1013F000309709F49CCF09959ACF209709F48ECEA7
:101400000E947101882309F489CE0E94000086CED3
:101410008EE093E00E94C90383E393E00E94C90336
:1014200088E593E00C94C903E89409C097FB3EF467
:1014300090958095709561957F4F8F4F9F4F992321
:10144000A9F0F92F96E9BB279395F695879577959F
:101450006795B795F111F8CFFAF4BB0F11F460FF5F
:101460001BC06F5F7F4F8F4F9F4F16C0882311F0B7
:1014700096E911C0772321F09EE8872F762F05C0CB
:10148000662371F096E8862F70E060E02AF09A9566
:10149000660F771F881FDAF7880F9695879597F95B
:1014A00008950E94640A0C94D50A0E94C70A38F075
:1014B0000E94CE0A20F0952311F00C94BE0A0C94E1
:1014C000C40A11240C94090B0E94E60A70F3959F3C
:1014D000C1F3950F50E0551F629FF001729FBB272B
:1014E000F00DB11D639FAA27F00DB11DAA1F649FC7
:1014F0006627B00DA11D661F829F2227B00DA11D7A
:10150000621F739FB00DA11D621F839FA00D611DFF
:10151000221F749F3327A00D611D231F849F600D20
:10152000211D822F762F6A2F11249F5750409AF049
:10153000F1F088234AF0EE0FFF1FBB1F661F771FD5
:10154000881F91505040A9F79E3F510580F00C94A0
:10155000BE0A0C94090B5F3FE4F3983ED4F38695E2
:1015600077956795B795F795E7959F5FC1F7FE2B40
:10157000880F911D9695879597F9089597F99F671C
:1015800080E870E060E008959FEF80EC089500240B
:101590000A941616170618060906089500240A94D8
:1015A00012161306140605060895092E0394000C5E
:1015B00011F4882352F0BB0F40F4BF2B11F460FFED
:1015C00004C06F5F7F4F8F4F9F4F089557FD905816
:1015D000440F551F59F05F3F71F04795880F97FBF7
:1015E000991F61F09F3F79F08795089512161306B1
:1015F0001406551FF2CF4695F1DF08C016161706E0
:101600001806991FF1CF8695710561050894089514
:10161000E894BB2766277727CB0197F90895A1E2C5
:101620001A2EAA1BBB1BFD010DC0AA1FBB1FEE1F5C
:10163000FF1FA217B307E407F50720F0A21BB30BA7
:10164000E40BF50B661F771F881F991F1A9469F723
:1016500060957095809590959B01AC01BD01CF017F
:1016600008950E94380B6894B1110C94090B0895E9
:101670000E94EE0A88F09F5798F0B92F9927B7512A
:10168000B0F0E1F0660F771F881F991F1AF0BA9526
:10169000C9F714C0B13091F00E94080BB1E0089571
:1016A0000C94080B672F782F8827B85F39F0B93F63
:1016B000CCF3869577956795B395D9F73EF49095D9
:1016C0008095709561957F4F8F4F9F4F0895EE0FD6
:1016D000FF1F0590F491E02D099410E0C2E6D0E0E0
:1016E00004C0FE010E94670B2196C336D107C9F7DB
:0416F000F894FFCF9C
:1016F40000000000A70107013401F4016501430162
:1017040057010D0A0074313A200074313A20656E95
:1017140061626C656420743320616E64206164646A
:10172400656420746F2074686520636861696E0065
:1017340074313A2064697361626C6520743320618A
:101744006E642064656C6574652069742066726FCC
:101754006D2074686520636861696E2E2074322080
:10176400696E74657276616C2073657420746F2081
:101774003530300074333A2000676F0074323A20F9
:101784000044697374616E6365203D200020636DBD
:1017940000564D4450565F317C315F564D4450568F
:1017A4000A005363686564756C657220544553542C
:1017B40000496E697469616C697A65642073636851
:1017C4006564756C657200616464656420743100DD
:1017D400616464656420743200456E61626C6564A2
:1017E40020743100456E61626C6564207432005669
:1017F4004D4450455F003A323A007C005F564D44F8
:04180400504500004B
:00000001FF
